S01700004763634170706C69636174696F6E312E737265635B
S11300000C942A000C9447000C9447000C9447006D
S11300100C9447000C9447000C9447000C94470040
S11300200C9447000C9447000C9447000C94470030
S11300300C9447000C9447000C9447000C94470020
S11300400C9447000C9447000C9447000C94470010
S11300500C94470011241FBECFE5D8E0DEBFCDBF0E
S113006011E0A0E6B0E0E4EFF7E002C005900D92E5
S1130070A033B107D9F721E0A0E3B1E001C01D929C
S1130080A133B207E1F70E947F030C94F8030C94A8
S1130090000087B3816787BB8AB381618ABB8AB357
S11300A083798ABB8BB38C668BBB8BB38F7E8BBB04
S11300B08FE39CE90197F1F700C000008BB38160E6
S11300C08BBB88B3816088BBAFE3BCE91197F1F7C0
S11300D000C0000088B3806188BBEFE3FCE931977E
S11300E0F1F700C0000088B3806688BB8FE39CE909
S11300F00197F1F700C0000088B38F7988BB9FEFA8
S1130100A9E6B8E19150A040B040E1F700C000007A
S113011089B38C7611F481E001C080E0811102C0C2
S113012090E00895EFE3FCE93197F1F700C0000097
S11301309BB39E7F9BBBAFE3BCE91197F1F700C073
S113014000009BB391609BBBBFEFE1EEF4E0B150C4
S1130150E040F040E1F700C00000CA9B80E081115C
S11301603CC090E0089549B3487050E0BA017595D9
S11301706795759567957595679599B39072492FAD
S113018050E05595479555954795559547955595FF
S1130190479599B39074292F30E035952795359577
S11301A027953595279535952795462B242BE213CE
S11301B080E0AFE3BCE91197F1F700C0000098B309
S11301C09E7F98BBAFE3BCE91197F1F700C0000034
S11301D098B3916098BBEF5F01C0E0E0E33018F2A0
S11301E081113CC090E0089549B3487050E0BA01D1
S11301F075956795759567957595679599B390729B
S1130200492F50E0559547955595479555954795F0
S11302105595479599B39074292F30E035952795D6
S1130220359527953595279535952795462B242B78
S1130230E21380E0AFE3BCE91197F1F700C00000DE
S113024098B39E7F98BBAFE3BCE91197F1F700C068
S1130250000098B3916098BBEF5F01C0E4E0E73021
S113026018F2811102C090E0089590E0089584E9A5
S113027086BF089510BC88E089B986E880BD88E10E
S11302808AB908955D9BFECF8CB90895CF93DF930F
S1130290EC0103C021960E94420188818111FACFAA
S11302A0DF91CF91089583E084BB85BB0E943A011E
S11302B086E690E00E9446018DE00E94420186B7E6
S11302C08B7F86BF11B88CE080B984E086BF85E35C
S11302D08A95F1F70000089584EA86BF06B607FE02
S11302E0FDCF81B1887F8830E1F782EB90E00E94F6
S11302F046018DE00E944201089583B984E886BFD7
S113030006B607FEFDCF81B1887F8831E1F788E723
S113031090E00E9446018DE00E944201089583B955
S113032084E886BF06B607FEFDCF81B1887F883298
S1130330E1F780E990E00E9446018DE00E944201CD
S11303400895CF93C82F0E946C0180E40E947D0120
S11303508C2F0E948F010E943701CF910895CF9373
S1130360C82F809130018F709C2F907F892B8460DF
S1130370809330010E94A10185E08A95F1F7000085
S1130380809130018B7F809330010E94A1018AE12A
S11303908A95F1F700C080E1C89F900111248091F3
S11303A030018F70822B8460809330010E94A10100
S11303B085E08A95F1F70000809130018B7F80936E
S11303C030010E94A1018AE18A95F1F700C0CF9122
S11303D00895CF93C82F88E0809330010E94A10133
S11303E08C2F0E94AF01CF910895CF93C82F809195
S11303F030018960809330010E94A1018C2F0E94FA
S1130400AF01CF910895CF93DF93EC0103C0219600
S11304100E94F50188818111FACFDF91CF9108956F
S113042081E00E94E901089584E0809330010E94F4
S1130430A10125E82A95F1F7000083E00E94E90173
S113044083E00E94E90183E00E94E90182E00E94C6
S1130450E90188E20E94E9018FE00E94E90181E05C
S11304600E94E90186E00E94E90180E80E94E90116
S11304708BEE90E00E9403028FEF93ED20E3815016
S113048090402040E1F700C000000E94100280E884
S11304900E94E90108958A3068F421E030E0A9015E
S11304A002C0440F551F8A95E2F7CA0180959095C2
S11304B0937008958FEF9FEF0895CF938AB38E6161
S11304C08ABB87B3807887BB8AB38F718ABB88B3B2
S11304D08F6788BB8BB3806E8BBBC0E02BB38C2F34
S11304E090E0880F991F922F917E8E71892B8BBB80
S11304F08C2F0E944B02AC01CF5FCB3008F52FEF5D
S113050083EC99E0215080409040E1F700C0000066
S113051096B39F7729B322952695277080E8289F64
S113052090011124292B4217530761F49FEF21EE08
S113053084E0915020408040E1F700C00000CECF1D
S113054081E001C080E090E0CF910895282F2470CD
S113055030E03595279535952795482F407150E023
S1130560559547955595479555954795559547956F
S1130570682F607270E075956795759567957595A8
S11305806795759567957595679581FF08C0232BC9
S113059041F0452B41F0672B41F480E0089580E061
S11305A0089580E0089580E0089581E00895982FEB
S11305B09270282F2870382F307180FF08C099233B
S11305C041F0222341F0311108C080E0089580E019
S11305D0089580E0089580E0089581E008950F93E0
S11305E01F93CF93DF938AB386638ABB8AB38F7BCF
S11305F08ABB8BB380648BBBC0E038C0EBB30C2FD9
S1130600017010E0B801660F771F9C2F9270492F7C
S113061050E0440F551F440F551F9C2F9470292FF1
S113062030E0220F331F220F331F9C2F9870892F25
S113063090E0880F991F880F991F9E2F997C692B32
S1130640462B242B822B8BBB2FEF81EE94E0215081
S113065080409040E1F700C000008C2F0E94A60269
S113066091E0CE9B90E0891305C0CF5FC03130F29A
S1130670D1E001C0D0E087B38B6187BB87B38F7DA6
S113068087BB88B3806288BBC0E02EC068B39C2F50
S11306909270492F50E0440F551F9C2F9470292FBE
S11306A030E0220F331F9C2F9870892F90E0880F21
S11306B0991F962F947E3C2F3170932B492B242B1A
S11306C0822B88BB2FEF81EE94E021508040904034
S11306D0E1F700C000008C2F0E94D70291E0B59B87
S11306E090E0891304C0CF5FC03180F201C0D0E034
S11306F08D2F90E0DF91CF911F910F910895CF93AB
S1130700DF9300D000D000D0CDB7DEB786E0E0E6BE
S1130710F0E0DE01119601900D928A95E1F710E068
S113072000E04FC0E12FF0E0EE0FFF1F81E090E00A
S11307308C0F9D1FE80FF91F0190F081E02D0995A2
S1130740892BF1F1111113C00E9453010E9414026C
S113075088EF90E00E9403029FEF29E688E1915020
S113076020408040E1F700C0000001E029C01130C2
S113077099F40E9453010E94140287E091E00E94C0
S113078003029FEF29E688E1915020408040E1F781
S113079000C0000001E014C0123091F40E94530123
S11307A00E94140286E191E00E9403029FEF29E671
S11307B088E1915020408040E1F700C0000001E052
S11307C01F5F133008F4AECF0111A9CF0E9453016B
S11307D00E94140285E291E00E9403029FEF29E641
S11307E088E1915020408040E1F700C0000097CF9D
S10707F0F894FFCFA7
S11307F45D02EF024900434F44452D4E2D4C4F47B3
S11308044943204932433A0041434B2052656365CE
S11308146976656420666F72204D5420534C410000
S113082441434B20526563656976656420666F7243
S1130834204D54204461746100526570656174658F
S113084464205374617274204578652E0052656384
S1130854656976696E67204D522064617461204134
S1130864434B2000526563656976696E67204D5277
S11308742044617461204E41434B00434F44452D51
S11308844E2D4C4F47494300666F756E643A2037CA
S113089434343220494300666F756E643A20373429
S11308A4323120494300666F756E643A2037343917
S11308B43220494300556E6B6E6F776E20494300B6
S9030000FC
