:100000000C942A000C9447000C9447000C94470071
:100010000C9447000C9447000C9447000C94470044
:100020000C9447000C9447000C9447000C94470034
:100030000C9447000C9447000C9447000C94470024
:100040000C9447000C9447000C9447000C94470014
:100050000C94470011241FBECFE5D8E0DEBFCDBF12
:1000600011E0A0E6B0E0E2E0F4E002C005900D92FD
:10007000AC30B107D9F721E0ACE0B1E001C01D928E
:10008000AD30B207E1F70E94B8010C94FF010C9467
:10009000000084E986BF089510BC88E089B986E82D
:1000A00080BD88E18AB908955D9BFECF8CB9089523
:1000B000CF93DF93EC0103C021960E945400888106
:1000C0008111FACFDF91CF91089583E084BB85BB86
:1000D0000E944C0080E690E00E9458008DE00E9453
:1000E000540086B78B7F86BF11B88CE080B984E05E
:1000F00086BF85E38A95F1F70000089584EA86BFFC
:1001000006B607FEFDCF81B1887F8830E1F78CEA23
:1001100090E00E9458008DE00E945400089583B939
:1001200084E886BF06B607FEFDCF81B1887F88319F
:10013000E1F782E790E00E9458008DE00E945400B1
:10014000089583B984E886BF06B607FEFDCF81B166
:10015000887F8832E1F78AE890E00E9458008DE0BD
:100160000E9454000895CF93C82F0E947E0080E41F
:100170000E948F008C2F0E94A1000E944900CF9105
:100180000895CF93C82F80910C018F709C2F907F82
:10019000892B846080930C010E94B30085E08A95CE
:1001A000F1F7000080910C018B7F80930C010E947D
:1001B000B3008AE18A95F1F700C080E1C89F900101
:1001C000112480910C018F70822B846080930C012C
:1001D0000E94B30085E08A95F1F7000080910C0140
:1001E0008B7F80930C010E94B3008AE18A95F1F71E
:1001F00000C0CF910895CF93C82F88E080930C0161
:100200000E94B3008C2F0E94C100CF910895CF931C
:10021000C82F80910C01896080930C010E94B3006B
:100220008C2F0E94C100CF910895CF93DF93EC01F2
:1002300003C021960E94070188818111FACFDF91C6
:10024000CF91089581E00E94FB00089584E080939F
:100250000C010E94B30025E82A95F1F7000083E025
:100260000E94FB0083E00E94FB0083E00E94FB00F1
:1002700082E00E94FB0088E20E94FB008FE00E9467
:10028000FB0081E00E94FB0086E00E94FB0080E80A
:100290000E94FB0085EE90E00E9415018FEF93ED28
:1002A00020E3815090402040E1F700C000000E9410
:1002B000220180E80E94FB0008958A3068F421E062
:1002C00030E0A90102C0440F551F8A95E2F7CA0128
:1002D00080959095937008958FEF9FEF0895CF9339
:1002E0008AB38E618ABB87B3807887BB8AB38F71EC
:1002F0008ABB88B38F6788BB8BB3806E8BBBC0E033
:100300002BB38C2F90E0880F991F922F917E8E71C6
:10031000892B8BBB8C2F0E945D01AC01CF5FCB3052
:1003200008F52FEF83EC99E0215080409040E1F7F1
:1003300000C0000096B39F7729B3229526952770B9
:1003400080E8289F90011124292B4217530761F45C
:100350009FEF21EE84E0915020408040E1F700C003
:100360000000CECF81E001C080E090E0CF91089501
:10037000CF93DF9300D0CDB7DEB78FE691E09A83BD
:10038000898310E000E025C0E12FF0E0EE0FFF1FB1
:1003900081E090E08C0F9D1FE80FF91F0190F08124
:1003A000E02D0995892BA1F0111112C00E94650062
:1003B0000E94260182EF90E00E9415019FEF29E63E
:1003C00088E1915020408040E1F700C0000001E04A
:1003D0001F5F1123C9F20111D4CF0E9465000E9452
:1003E000260181E091E00E9415019FEF29E688E156
:1003F000915020408040E1F700C00000C2CFF89447
:02040000FFCF2C
:10040200434F44452D4E2D4C4F47494320493243DB
:100412003A0041434B205265636569766564206604
:100422006F72204D5420534C410041434B20526582
:1004320063656976656420666F72204D542044615D
:1004420074610052657065617465642053746172F1
:1004520074204578652E00526563656976696E671A
:10046200204D5220646174612041434B200052654B
:1004720063656976696E67204D522044617461201C
:100482004E41434B00434F44452D4E2D4C4F47495F
:100492004300666F756E643A203734343220494324
:0C04A20000556E6B6E6F776E20494300B2
:00000001FF
