S01700004763634170706C69636174696F6E312E737265635B
S11300000C942A000C9447000C9447000C9447006D
S11300100C9447000C9447000C9447000C94470040
S11300200C9447000C9447000C9447000C94470030
S11300300C9447000C9447000C9447000C94470020
S11300400C9447000C9447000C9447000C94470010
S11300500C94470011241FBECFE5D8E0DEBFCDBF0E
S113006011E0A0E6B0E0E6E2FAE002C005900D92ED
S1130070A633B107D9F721E0A6E3B1E001C01D9290
S1130080A733B207E1F70E94EA010C9411050C941E
S1130090000084E986BF089510BC88E089B986E829
S11300A080BD88E18AB908955D9BFECF8CB908951F
S11300B0CF93DF93EC0103C021960E945400888102
S11300C08111FACFDF91CF91089583E084BB85BB82
S11300D00E944C0082E990E00E9458008DE00E944A
S11300E0540086B78B7F86BF11B88CE080B984E05A
S11300F086BF85E38A95F1F70000089584EA86BFF8
S113010006B607FEFDCF81B1887F8830E1F78EED1A
S113011090E00E9458008DE00E945400089583B935
S113012084E886BF06B607FEFDCF81B1887F88319B
S1130130E1F784EA90E00E9458008DE00E945400A8
S1130140089583B984E886BF06B607FEFDCF81B162
S1130150887F8832E1F78CEB90E00E9458008DE0B4
S11301600E9454000895CF93C82F0E947E0080E41B
S11301700E948F008C2F0E94A1000E944900CF9101
S11301800895CF93C82F809136018F709C2F907F54
S1130190892B8460809336010E94B30085E08A95A0
S11301A0F1F70000809136018B7F809336010E9425
S11301B0B3008AE18A95F1F700C080E1C89F9001FD
S11301C01124809136018F70822B846080933601D4
S11301D00E94B30085E08A95F1F700008091360112
S11301E08B7F809336010E94B3008AE18A95F1F7F0
S11301F000C0CF910895CF93C82F88E08093360133
S11302000E94B3008C2F0E94C100CF910895CF9318
S1130210C82F809136018960809336010E94B30013
S11302208C2F0E94C100CF910895CF93DF93EC01EE
S113023003C021960E94070188818111FACFDF91C2
S1130240CF91089581E00E94FB00089584E080939B
S113025036010E94B30025E82A95F1F7000083E0F7
S11302600E94FB0083E00E94FB0083E00E94FB00ED
S113027082E00E94FB0088E20E94FB008FE00E9463
S1130280FB0081E00E94FB0086E00E94FB0080E806
S11302900E94FB0087E191E00E9415018FEF93ED2E
S11302A020E3815090402040E1F700C000000E940C
S11302B0220180E80E94FB0008950F931F93CF93BF
S11302C0DF93CDB7DEB7C654D1090FB6F894DEBFBD
S11302D00FBECDBF8AB38F608ABB8AB38F708ABBCF
S11302E087B3807C87BB8BB38F708BBB88B3807CD8
S11302F088BB84B3846084BB85B38B7F85BB40E0BB
S113030058C08BB3807F942F9F70892B8BBB2FEFAA
S113031031EE84E0215030408040E1F700C000001D
S113032089B3282F22952F7096B39F73A0E19A9FCB
S1130330C0011124822B21E030E0042E02C0220FE0
S1130340331F0A94E2F72095821791F18AE0E0E6E0
S1130350F0E0DE01119601900D928A95E1F7FE011D
S11303603B9688E2DF011D928A95E9F71F922F934D
S113037084E291E09F938F938E010D5C1F4F1F9336
S11303800F930E942702B801CE0101960E941C021D
S11303900E9465000E942601CE0101960E9415016B
S11303A00F900F900F900F900F900F9080E005C06A
S11303B04F5F4A3008F4A5CF81E090E0CA5BDF4F7D
S11303C00FB6F894DEBF0FBECDBFDF91CF911F9162
S11303D00F910895CF93DF9300D0CDB7DEB78DE5AD
S11303E091E09A83898310E024C0E12FF0E0EE0FBE
S11303F0FF1F81E090E08C0F9D1FE80FF91F019013
S1130400F081E02D0995892B99F0111111C00E94FA
S113041065000E94260187E291E00E9415019FEF8A
S113042029E688E1915020408040E1F700C00000B7
S11304301F5F1123D1F2D7CFFB01DC010D90002007
S1130440E9F7119701900D920020E1F70895AEE0CD
S1130450B0E0EDE2F2E00C94E8040D891E8986E038
S11304608C831A8309838FEF9FE79E838D83AE016C
S1130470475E5F4F6F89788DCE0101960E944902D5
S1130480EF81F885E00FF11F10822E96E4E00C94C2
S11304900405ABE0B0E0EFE4F2E00C94DA046C01A4
S11304A07B018A01FC0117821682838181FFCCC102
S11304B0CE0101963C01F6019381F70193FD8591EC
S11304C093FF81917F01882309F4BAC1853239F4FD
S11304D093FD859193FF81917F01853229F4B601C3
S11304E090E00E944004E7CF912C212C312CFFE1B5
S11304F0F315D8F08B3279F038F4803279F0833206
S1130500A1F4232D20611DC08D3261F0803369F484
S1130510232D216016C0832D8260382EE32DE460E4
S11305203E2E2AC0F32DF8601DC037FC2DC020EDEF
S1130530280F2A3040F08E32B9F436FC81C1232DC5
S11305402064322E19C036FE06C08AE0989E200D23
S11305501124922E11C0EAE02E9E200D1124222E89
S1130560F32DF0623F2E08C08C3621F4832D806871
S1130570382E02C0883641F4F70193FD859193FF2C
S113058081917F018111B3CF982F9F7D9554933032
S113059028F40C5F1F4F9FE399830DC0833631F01D
S11305A0833771F0833509F059C021C0F801808187
S11305B089830E5F1F4F88248394912C530113C0A9
S11305C02801F2E04F0E511CF801A080B18036FEE4
S11305D003C0692D70E002C06FEF7FEFC5010E9478
S11305E035044C018201F32DFF773F2E16C02801FC
S11305F022E0420E511CF801A080B18036FE03C0F7
S1130600692D70E002C06FEF7FEFC5010E942A04DC
S11306104C01F32DF0683F2E820133FC1BC0822D68
S113062090E088169906B0F4B60180E290E00E944A
S113063040042A94F4CFF50137FC859137FE81916B
S11306405F01B60190E00E94400421102A9421E049
S1130650821A91088114910471F7E8C0843611F06C
S1130660893641F5F80137FE07C0608171818281C6
S113067093810C5F1F4F08C060817181072E000CAD
S1130680880B990B0E5F1F4FF32DFF763F2E97FFBC
S113069009C090958095709561957F4F8F4F9F4FBE
S11306A0F0683F2E2AE030E0A3010E947C04882EEB
S11306B0861845C0853731F4232D2F7EB22E2AE0CB
S11306C030E025C0932D997FB92E8F36C1F018F4F0
S11306D0883579F0B5C0803719F0883721F0B0C07B
S11306E0E92FE061BE2EB4FE0DC0FB2DF460BF2ED9
S11306F009C034FE0AC0292F2660B22E06C028E0A5
S113070030E005C020E130E002C020E132E0F80131
S1130710B7FE07C060817181828193810C5F1F4F96
S113072006C06081718180E090E00E5F1F4FA301DD
S11307300E947C04882E8618FB2DFF773F2E36FE00
S11307400DC0232D2E7FA22E891458F434FE0BC025
S113075032FC09C0832D8E7EA82E05C0B82CA32C94
S113076003C0B82C01C0B92CA4FE0FC0FE01E80DD3
S1130770F11D8081803321F49A2D997EA92E09C020
S1130780A2FE06C0B394B39404C08A2D867809F0FF
S1130790B394A3FC11C0A0FE06C0B21488F4280CC4
S11307A0922C9B180EC0B21460F4B60180E290E063
S11307B00E944004B394F7CFB21418F42B1802C06B
S11307C0982C212CA4FE10C0B60180E390E00E9476
S11307D04004A2FE17C0A1FC03C088E790E002C059
S11307E088E590E0B6010CC08A2D867859F0A1FE08
S11307F002C08BE201C080E2A7FC8DE2B60190E06A
S11308000E944004891438F4B60180E390E00E9409
S113081040049A94F7CF8A94F301E80DF11D808186
S1130820B60190E00E9440048110F5CF222009F423
S113083042CEB60180E290E00E9440042A94F6CFB2
S1130840F6018681978102C08FEF9FEF2B96E2E13C
S11308500C94F604FC010590615070400110D8F727
S1130860809590958E0F9F1F0895FC0161507040F4
S113087001900110D8F7809590958E0F9F1F0895D1
S11308800F931F93CF93DF93FB01238121FD03C0BB
S11308908FEF9FEF2CC022FF16C046815781248121
S11308A035814217530744F4A081B1819D012F5F24
S11308B03F4F318320838C93268137812F5F3F4FB5
S11308C03783268314C08B01EC01FB010084F1857E
S11308D0E02D0995892BE1F6D80116968D919C910E
S11308E01797019617969C938E931697CE01DF91D6
S11308F0CF911F910F910895FA01AA27283051F141
S1130900203181F1E8946F936E7F6E5F7F4F8F4F3C
S11309109F4FAF4FB1E03ED0B4E03CD0670F781F9B
S1130920891F9A1FA11D680F791F8A1F911DA11D80
S11309306A0F711D811D911DA11D20D009F46894B9
S11309403F912AE0269F11243019305D3193DEF661
S1130950CF010895462F4770405D4193B3E00FD017
S1130960C9F7F6CF462F4F70405D4A3318F0495D02
S113097031FD4052419302D0A9F7EACFB4E0A695E5
S11309809795879577956795BA95C9F70097610507
S1130990710508959B01AC010A2E0694579547955D
S11309A037952795BA95C9F7620F731F841F951F52
S11309B0A01D08952F923F924F925F926F927F9263
S11309C08F929F92AF92BF92CF92DF92EF92FF925B
S11309D00F931F93CF93DF93CDB7DEB7CA1BDB0B07
S11309E00FB6F894DEBF0FBECDBF09942A883988AC
S11309F048885F846E847D848C849B84AA84B984B3
S1130A00C884DF80EE80FD800C811B81AA81B981BE
S1130A10CE0FD11D0FB6F894DEBF0FBECDBFED01D2
S1090A200895F894FFCFD5
S1130A2665787065637465643A0000000000000030
S1130A3600000000000000000000000000000000AC
S1130A46000000000000000000000000000000009C
S1130A560000434F44452D4E2D4C4F4749432049F2
S1130A6632433A0041434B205265636569766564B7
S1130A7620666F72204D5420534C410041434B2055
S1130A86526563656976656420666F72204D5420ED
S1130A9644617461005265706561746564205374C1
S1130AA6617274204578652E0052656365697669BE
S1130AB66E67204D5220646174612041434B2000CF
S1130AC6526563656976696E67204D522044617488
S1130AD661204E41434B00434F44452D4E2D4C4F10
S1130AE647494300256400666F756E643A203734BF
S1090AF6343220494300E4
S9030000FC
