S01700004763634170706C69636174696F6E312E737265635B
S11300000C942A000C9434000C9434000C943400A6
S11300100C9434000C9434000C9434000C9434008C
S11300200C9434000C9434000C9434000C9434007C
S11300300C9434000C9434000C9434000C9434006C
S11300400C9434000C9434000C9434000C9434005C
S11300500C94340011241FBECFE5D8E0DEBFCDBF21
S11300600E947D000C947F000C9400008AB38F6082
S11300708ABB8AB38F708ABB87B3807C87BB8BB300
S11300808F708BBB88B3807C88BB84B3846084BB53
S113009085B38B7F85BB40E02DC08BB3807F942FCD
S11300A09F70892B8BBB2FEF50E782E0215050408B
S11300B08040E1F700C0000029B3922F92959F7011
S11300C026B3822F8F7350E1959F90011124282B22
S11300D0822F90E0042E02C0959587950A94E2F74A
S11300E080FF04C085B3846085BB03C085B38B7F68
S11300F085BB4F5F4A3088F2CECF0E943600F89419
S1050100FFCF2B
S9030000FC
