:100000000C942A000C9434000C9434000C943400AA
:100010000C9434000C9434000C9434000C94340090
:100020000C9434000C9434000C9434000C94340080
:100030000C9434000C9434000C9434000C94340070
:100040000C9434000C9434000C9434000C94340060
:100050000C94340011241FBECFE5D8E0DEBFCDBF25
:100060000E945D000C9473000C9400008AB38F60B2
:100070008ABB8AB38F708ABB87B3807C87BB8BB304
:100080008F708BBB88B3807C88BB84B3846084BB57
:1000900085B38B7F85BB08959BB3907F8F70892B31
:1000A0008BBB089529B322952F7086B38F7390E18F
:1000B000299F90011124822B08950E943600C0E0F0
:1000C0000FC08C2F0E944C002FEF80E792E0215050
:1000D00080409040E1F700C000000E945200CF5FD6
:0A00E000CA3078F3ECCFF894FFCF9C
:00000001FF
